:100000000C943A000C9457000C9457000C94570031
:100010000C9496000C94DB000C9457000C94570041
:100020000C9457000C9457000C9457000C94A001AA
:100030000C9457000C9457000C9419020C94570020
:100040000C9457000C9457000C94BE010C9457006C
:100050000C9457000C9457000C9457000C945700C4
:100060000C9457000C9457006364696E6F7073753D
:1000700078585B0011241FBECFEFD8E0DEBFCDBFA4
:1000800011E0A0E0B1E0EAE9F9E102C005900D92CB
:10009000A036B107D9F711E0A0E6B1E001C01D928A
:1000A000AB37B107E1F70E945C020C94CB0C0C94C7
:1000B000000005966AE070E00E943306CB0135E34C
:1000C00003C0232F2A95F1F701972FEF8F3F920757
:1000D000C1F70895E0E2FEE43197F1F721E030E066
:1000E00002C0220F331F8A95E2F783B190E082238A
:1000F0009323892BD1F380E29EE40197F1F70895D1
:10010000E0E2FEE43197F1F721E030E002C0220F97
:10011000331F8A95E2F786B190E082239323892BDF
:10012000D1F380E29EE40197F1F708951F920F92B8
:100130000FB60F9211248F939F93AF93BF9380912B
:100140006001882369F410928500109284008091E8
:10015000810082608093810081E08093600122C0F1
:100160008091840090918500A0E0B0E080936601CA
:1001700090936701A0936801B09369018091810019
:100180008D7F80938100809181008B7F809381009F
:10019000809181008E7F809381001092600181E0C8
:1001A00080936101BF91AF919F918F910F900FBE8E
:1001B0000F901F9018951F920F920FB60F92112457
:1001C0002F938F939F9399B1892F847080937A0195
:1001D00080917A018695869580937A0198709093A4
:1001E0006E0180916E0186958695869580936E014D
:1001F00080916F01882369F480917A01882311F03E
:1002000081E03BC080916E01882309F441C082E007
:1002100027C080916F01813069F480917A01882331
:1002200019F4109277011EC080916E01882381F12C
:1002300083E023C080916F01823069F480916E0168
:10024000882319F4109277011AC080917A018823CB
:10025000F9F083E005C080916E01882349F481E0C4
:100260008093770180916C0190916D0101970CC092
:1002700080917A01882361F482E0809377018091F4
:100280006C0190916D01019690936D0180936C01CA
:100290009091770180916F01981739F081E08093F8
:1002A0006B018091770180936F0180916C01909137
:1002B0006D018159914021F410926D0110926C01F1
:1002C00080916C0190916D018F5F9F4F31F480E9B7
:1002D00091E090936D0180936C019F918F912F918C
:1002E0000F900FBE0F901F901895E0EBF0E080810B
:1002F0008360808380818068808386E18093B300FF
:10030000E1EBF0E08081876080830895E1E8F0E030
:10031000808188608083AFE6B0E08C9182608C93AE
:1003200080E495EB909389008093880080818D7F95
:10033000808380818B7F808380818E7F80830895FE
:100340001F920F920FB60F9211248F93EF93FF938A
:10035000E1E8F0E080818D7F808380818B7F8083E6
:1003600080818E7F808381E080936201FF91EF9195
:100370008F910F900FBE0F901F9018951F920F92A4
:100380000FB60F9211248F939F93EF93FF93809159
:10039000C00087FFFCCF9091C6009C3341F481E000
:1003A00080936301109264011092650130C09E3306
:1003B00091F480916301882371F080916501882315
:1003C000B1F081E080936401E0916501F0E0E059D3
:1003D000FE4F10820CC0809163018823C1F0892FE9
:1003E00080538A3020F480916501863018F0109295
:1003F00063010DC09E3359F0E0916501F0E0E059D2
:10040000FE4F9083809165018F5F80936501FF911E
:10041000EF919F918F910F900FBE0F901F901895A5
:1004200084B5826084BDEEE6F0E0808182608083E6
:1004300008951F920F920FB60F9211242F933F939E
:100440008F939F932091750130917601809178016F
:10045000909179012817390749F485B58B7F85BDBF
:10046000109276011092750145980DC088B190E206
:10047000892788B9809175019091760101969093B2
:100480007601809375019F918F913F912F910F90ED
:100490000FBE0F901F90189588EB87BD85B58460BF
:1004A00085BD80E193E0909379018093780110926B
:1004B00076011092750108952F923F924F925F92AC
:1004C0006F927F928F929F92AF92BF92CF92DF9264
:1004D000EF92FF920F931F93DF93CF93CDB7DEB7C9
:1004E00069970FB6F894DEBF0FBECDBF78948091A8
:1004F000680086608093680080916C0084608093BF
:100500006C0080916D008C6080936D008091C100C3
:1005100080688093C10087E690E09093C500809347
:10052000C4000E9475010E94860184B5826084BD6A
:1005300080916E00826080936E000E94EB058BB10B
:100540008C608BB92C9A239A87B1806387B980918C
:10055000C10088618093C1008091C2008660809351
:10056000C2003B9A43983D9A81E00E94D10580E009
:1005700060E00E94E10580E091E00E94C50581E015
:1005800060E00E94E1058EE091E00E94C50580E1F7
:1005900097E220E931E0F9013197F1F70197D9F7B6
:1005A00081E00E94D10599B1892F847080937A01EE
:1005B00080917A018695869580937A0198709093C0
:1005C0006E0180916E0186958695869580936E0169
:1005D00080916E01882339F480917A01882319F47F
:1005E00010926F0117C080916E01882331F48091C1
:1005F0007A01882311F081E00BC080916E0188237D
:1006000031F080917A01882311F482E001C083E007
:1006100080936F0180916F018093770184E690E071
:100620000E94540B9C01009749F081E02039380763
:100630002CF41216130614F4390103C031E0632EB2
:10064000712C88EC90E00E94540B9C01009749F0BB
:1006500091E0203939072CF41216130614F44901DD
:1006600005C0449A2D9821E0822E912C93E1292EE9
:10067000312C2C0E3D1E8DE0482E512C4C0E5D1E53
:1006800083B126B184FD10C080E29EE40197F1F7AA
:100690001C9BFECF80E29EE40197F1F7419A80E433
:1006A0009CE90197F1F7419820FD9FC080E29EE40C
:1006B0000197F1F7309BFECF80E29EE40197F1F7BE
:1006C00080916A01882309F041C081E080936A012A
:1006D00080E060E00E94E10589E191E00E94C505AB
:1006E00080E060E00E94E10581E291E00E94C505A2
:1006F00081E060E00E94E10570926D0160926C0102
:1007000081E060E00E94E10588E291E00E94C50579
:1007100081E060E00E94E105ADB7BEB718970FB663
:10072000F894BEBF0FBEADBFEDB7FEB731961296BF
:100730003C922E92119729E030E03383228381E3AB
:1007400091E095838483778266823EC010926A012D
:1007500080E060E00E94E10589E191E00E94C5052A
:1007600080E060E00E94E10589E391E00E94C50518
:1007700090926D0180926C0181E060E00E94E10541
:1007800088E291E00E94C50581E060E00E94E105F9
:100790002DB73EB7285030400FB6F8943EBF0FBE7D
:1007A0002DBFEDB7FEB73196ADB7BEB712963C92EE
:1007B0002E92119729E030E03383228381E391E088
:1007C00095838483978286820E949706ADB7BEB7D1
:1007D00018960FB6F894BEBF0FBEADBF81E060E0C3
:1007E0000E94E105C1010E94C50580916101882335
:1007F00009F4CFC060916601709167018091680132
:100800009091690122E030E040E050E00E946806EB
:10081000CA01B9012AE030E040E050E00E9414062D
:100820002AE330E040E050E00E944606D22EC32E7C
:10083000B42EA52E622F732F842F952F2AE030E03F
:1008400040E050E00E94460679018A0189016D2D41
:100850007C2D8B2D9A2D2AE030E040E050E00E9464
:100860004606D62E2DB73EB72A5030400FB6F89424
:100870003EBF0FBE2DBFEDB7FEB7319627E030E08B
:100880002C0F3D1FADB7BEB712963C932E93119718
:1008900086E090E093838283AFE3B1E0B583A483E5
:1008A000F782E682D08611860E9497062DB73EB762
:1008B000265F3F4F0FB6F8943EBF0FBE2DBF80E0BE
:1008C0006BE00E94E105CE0107960E94C505A9EEE6
:1008D000BFEF0A9FC0010B9F900D1A9F900D11242E
:1008E00060E971E00E9433066D5D6093B300BCE384
:1008F000BD87C70164E670E00E943306605D6E87C5
:10090000C7016AE070E00E943306CB016AE070E044
:100910000E943306805D8F87C7016AE070E00E9405
:100920003306805D888B20E3D20ED98A3EE33A8B72
:100930008091C00085FFFCCF8D858093C60021E0AB
:1009400030E002C02F5F3F4FF201E20FF31F8081C2
:10095000803321F0F201E20FF31F0EC02530310584
:1009600089F7F8CF90818091C00085FFFCCF9093EC
:10097000C6002F5F3F4F3196263031059CF3081596
:1009800019051CF02D9A449802C044982D98109295
:100990006101809162018823C9F081E00E94D10544
:1009A00087E491E00E94C50588EB9BE020E931E0F7
:1009B000F9013197F1F70197D9F781E00E94D1054C
:1009C0001092620110926101449A2D9880916B01FE
:1009D000882309F455C020916C0130916D018DB7C9
:1009E0009EB708970FB6F8949EBF0FBE8DBFEDB7A8
:1009F000FEB7319683E090E08C0F9D1FADB7BEB778
:100A000012969C938E93119784E090E09383828357
:100A1000A2E5B1E0B583A483378326830E949706BD
:100A20002DB73EB7285F3F4F0FB6F8943EBF0FBEBD
:100A30002DBF81E064E00E94E105CE0103960E9493
:100A4000C50580916A01882369F060916C017091FD
:100A50006D0184E690E00E945A0B60906C017090EA
:100A60006D010CC060916C0170916D0188EC90E09B
:100A70000E945A0B80906C0190906D0110926B0156
:100A800080916401882309F4FBCD00D000D000D010
:100A9000EDB7FEB7319620E731E0ADB7BEB712969D
:100AA0003C932E93119786E591E093838283A1E096
:100AB000B0E0AC0FBD1FB583A4830E94C806298196
:100AC0003A81C9016AE070E00E9433068B0100D0D0
:100AD00000D0EDB7FEB73196ADB7BEB712965C92B7
:100AE0004E92119786E090E093838283A9E5B1E06E
:100AF000B583A48377836683C9016AE070E00E94AE
:100B00003306918780870E9497062DB73EB7265FF0
:100B10003F4F0FB6F8943EBF0FBE2DBF81E06CE093
:100B20000E94E105C2010E94C505061517057CF467
:100B300088EB87BD85B5846085BD80E193E09093A7
:100B400079018093780110927601109275011092CC
:100B5000640196CD9BB19F709BB99BB1807F892B1F
:100B60008BB9299A299A299808951F93182F289AA2
:100B70000E94AA05812F8295807F0E94AA0580E4A9
:100B80009FE10197F1F71F910895CF93DF93EC0157
:100B900002C00E94B50589918823D9F7DF91CF91D2
:100BA00008951F93182F28980E94AA05812F8295D7
:100BB000807F0E94AA0580E49FE10197F1F71F91D1
:100BC0000895882319F4862F805802C0862F8054F8
:100BD0000E94D1050895209A219A549A559A569ABE
:100BE000579A80E69AEE0197F1F780E30E94AA05F2
:100BF00080E29EE40197F1F780E30E94AA0580EE6F
:100C000091E00197F1F780E30E94AA0580E20E943B
:100C1000AA0580E49FE10197F1F788E20E94D105DF
:100C20008FE00E94D1050895629FD001739FF0016B
:100C3000829FE00DF11D649FE00DF11D929FF00D6C
:100C4000839FF00D749FF00D659FF00D9927729FA3
:100C5000B00DE11DF91F639FB00DE11DF91FBD012E
:100C6000CF011124089597FB092E07260AD077FD9E
:100C700004D049D006D000201AF4709561957F4FBA
:100C80000895F6F7909581959F4F0895A1E21A2E49
:100C9000AA1BBB1BFD010DC0AA1FBB1FEE1FFF1F20
:100CA000A217B307E407F50720F0A21BB30BE40B70
:100CB000F50B661F771F881F991F1A9469F76095B7
:100CC0007095809590959B01AC01BD01CF01089571
:100CD00097FB092E05260ED057FD04D0D7DF0AD08A
:100CE000001C38F450954095309521953F4F4F4F5B
:100CF0005F4F0895F6F790958095709561957F4FB9
:100D00008F4F9F4F0895AA1BBB1B51E107C0AA1F1D
:100D1000BB1FA617B70710F0A61BB70B881F991F9C
:100D20005A95A9F780959095BC01CD010895AEE044
:100D3000B0E0EDE9F6E00C94A20C0D891E898F89D4
:100D4000988D97FF02C080E090E801979E838D8385
:100D50001A83098386E08C839E01255E3F4FCE0176
:100D60000196698D7A8DA9010E94E2064D815E810E
:100D700057FD0AC02F813885421753070CF49A019A
:100D8000020F131FF80110822E96E4E00C94BE0CA3
:100D9000AEE0B0E0EEECF6E00C94A40C85E08C83C1
:100DA0008B899C899A8389839E01295E3F4FCE015E
:100DB00001966D897E89A9010E94430A2E96E2E080
:100DC0000C94C00CABE0B0E0E8EEF6E00C94940CB0
:100DD0003C012B015A01FC0117821682838181FD9F
:100DE00003C06FEF7FEFC6C19AE0892E1E01089401
:100DF000211C311CF3012381F20123FD859123FF86
:100E000081912F01882309F4B2C1853239F423FD81
:100E1000859123FF81912F01853229F490E0B30160
:100E20000E94CB0BE7CF982FFF24EE249924FFE1FB
:100E3000FF15D0F09B3269F09C3228F4903259F0C3
:100E4000933291F40EC09D3249F0903369F441E041
:100E500024C052E0F52A84E0F82A28C098E0F92A54
:100E600025C0E0E1FE2A22C0F7FC29C0892F80536B
:100E70008A3070F4F6FE05C0989C902C1124980ED0
:100E800015C0E89CE02C1124E80EF0E2FF2A0EC009
:100E90009E3229F4F6FC6BC140E4F42A07C09C366C
:100EA00019F450E8F52A02C0983649F4F20123FDFE
:100EB000959123FF91912F01992309F0B8CF892FA4
:100EC0008554833018F08052833038F444E050E089
:100ED000A40EB51E5FE359830FC0933631F09337EC
:100EE00079F0933509F056C020C0F50180818983DF
:100EF00042E050E0A40EB51E610101E010E012C016
:100F0000F501C080D180F6FC03C06FEF7FEF02C017
:100F1000692D70E042E050E0A40EB51EC6010E94AB
:100F20007E0B8C015FE7F52214C0F501C080D180F3
:100F3000F6FC03C06FEF7FEF02C0692D70E042E066
:100F400050E0A40EB51EC6010E94730B8C0150E840
:100F5000F52AF3FE07C01AC080E290E0B3010E94B8
:100F6000CB0BEA948E2D90E008171907A8F30EC05A
:100F7000F601F7FC8591F7FE81916F0190E0B301D6
:100F80000E94CB0BE110EA940150104001151105AD
:100F900079F7EAC0943611F0993669F5F7FE08C082
:100FA000F501208131814281538184E090E00AC0C3
:100FB000F501808191819C01442737FD4095542F94
:100FC00082E090E0A80EB91E9FE6F92257FF09C003
:100FD00050954095309521953F4F4F4F5F4FE0E83A
:100FE000FE2ACA01B901A1012AE030E00E94110CD9
:100FF000D82ED21840C0953729F41F2D1F7E2AE025
:1010000030E01DC01F2D197F9F3661F0903720F40E
:10101000983509F0ACC00FC0903739F0983709F017
:10102000A6C004C028E030E00AC0106114FD1460BE
:1010300020E130E004C014FD166020E132E017FF2B
:1010400008C0F501608171818281938144E050E0A4
:1010500008C0F50180819181BC0180E090E042E010
:1010600050E0A40EB51EA1010E94110CD82ED2187A
:101070008FE7F82EF122F6FE0BC05EEFF522D914B1
:1010800038F4F4FE07C0F2FC05C08FEEF82202C06F
:101090001D2D01C0192DF4FE0DC0FE01ED0DF11D39
:1010A0008081803319F499EEF92208C01F5FF2FEA7
:1010B00005C003C08F2D867809F01F5F0F2DF3FC4C
:1010C00014C0F0FE0FC01E1510F09D2C0BC09D2CFF
:1010D0009E0C911A1E2D06C080E290E0B3010E9482
:1010E000CB0B1F5F1E15C0F304C01E1510F4E11AD0
:1010F00001C0EE2404FF0FC080E390E0B3010E9422
:10110000CB0B02FF1DC001FD03C088E790E00EC0BD
:1011100088E590E00BC0802F867891F001FF02C037
:101120008BE201C080E2F7FC8DE290E0B3010E9407
:10113000CB0B06C080E390E0B3010E94CB0B9A94E6
:10114000D914C0F3DA94F101ED0DF11D808190E026
:10115000B3010E94CB0BDD20A9F706C080E290E02E
:10116000B3010E94CB0BEA94EE20C1F743CEF3010A
:1011700066817781CB012B96E2E10C94B00CFC01E7
:1011800020FD08C023FD05C022FF02C073836283D7
:10119000518340830895EF92FF920F931F9344FF72
:1011A00002C033E011C046FF02C034E00DC0DB01D5
:1011B000FC01AA0FBB1FEE1FFF1F1094D1F76A0F8F
:1011C0007B1F8E1F9F1F31E0660F771F881F991F9F
:1011D0003150D1F77B018C01E20EF11C011D111D74
:1011E000A8019701B701CA011F910F91FF90EF90DD
:1011F00008950F931F93CF93DF938C01C8010E9432
:10120000890BEC0197FD08C00E94600B892BB1F798
:10121000CE01B8010E94F70BCE01DF91CF911F9153
:101220000F910895A0E0B0E0E8E1F9E00C949C0C87
:10123000EC01C62E5A01122F0E94890BAC018B3291
:1012400019F08D3251F41068CA9409F46DC0CE01C2
:101250000E94890BAC0197FD67C06DEFD62ED1229D
:101260008D2D807301F54033F1F4CA9409F447C021
:10127000CE010E94890BAC0197FD41C082E0D82AC3
:10128000483711F0483559F480E4D82ACA94B9F1A6
:10129000CE010E94890BAC0199232CF430C0D6FCFE
:1012A00002C080E1D82AEE24FF248701242F205396
:1012B000283088F0D4FC09C02A3068F0D6FE05C07A
:1012C0002F7D822F8151863028F0CA01BE010E94F5
:1012D000F70B12C02750C801B7014D2D0E94CB0853
:1012E0007B018C0182E0D82ACA9461F0CE010E9471
:1012F000890BAC0197FFDACFD1FC04C015C0EE24F6
:10130000FF248701D7FE08C010950095F094E09463
:10131000E11CF11C011D111DC501B801A7012D2DF6
:101320000E94BF0881E001C080E0CDB7DEB7EAE0EF
:101330000C94B80CA0E2B0E0E0EAF9E00C94980C50
:101340006C01A62E8A017901FE01319680E2DF014F
:101350001D928A95E9F770E030E060E040E050E0EF
:101360004F01A1E0B0E0F6018381F70183FD2591F3
:1013700083FF21917F01222309F47EC02E3519F4C9
:101380004115510569F1872F90E08417950744F4C2
:101390002D3551F12D3221F4332329F431E021C0D0
:1013A000332309F4622F322F832F869586958695F5
:1013B000F401E80FF11D832F87703D0102C0660C18
:1013C000771C8A95E2F7208126292083361711F4AD
:1013D00030E007C0361710F43F5FE6CF3150E4CF5E
:1013E00071E04F5F5F4FBFCF332319F08E81806272
:1013F0008E83772359F0FE0131969E012F5D3F4F7A
:10140000808180958193E217F307D1F7BB24B394D1
:101410004E010894811C911CC6010E94890BAC01ED
:1014200097FD22C0869586958695F401E80FF11DFB
:10143000808190E09A012770307002C09595879561
:101440002A95E2F780FD05C0CA01B6010E94F70B9C
:101450000BC00115110519F0D8014D938D01AA9407
:10146000BB24AA20C9F602C0BB2031F40115110526
:1014700029F0F801108202C0EE24FF24C701A096D3
:10148000EEE00C94B40CA0E0B0E0E9E4FAE00C94D7
:10149000980C5C016B013A01FC01178216828824CA
:1014A000EAC0812F90E00E94600B892B21F0C501DA
:1014B0000E94F908E0C0153249F4F601F3FC659189
:1014C000F3FE61916F01653269F415E2C5010E9476
:1014D000890B97FDDCC0181709F4CDC0B5010E9437
:1014E000F70BDAC06A3219F0162F00E006C0F3FCE1
:1014F0001591F3FE11916F0101E099240FC0026074
:10150000692D70E080E090E040E20E94CB08962ECA
:10151000F601F3FC1591F3FE11916F01212F205379
:101520002A3068F301FD03C099249A9403C09920DE
:1015300009F4B2C0183621F01C3699F4F6010BC03C
:10154000F601F3FC6591F3FE6191683619F06F01C5
:10155000162F07C008600460F3FC1591F3FE11918B
:101560006F01112309F498C088E690E0612F70E0C4
:101570000E94680B892B09F48FC0802F00FF03C0E5
:10158000EE24FF2407C0F301E080F18022E030E088
:10159000620E731E1E3651F4F5014681578160E0DC
:1015A00070E0C701202F0E94BF0865C0133691F478
:1015B00081FD02C099249394C5010E94890B97FD77
:1015C00066C0E114F10419F0F70181937F019A9448
:1015D00099F74FC01B3559F4C501692DA701960134
:1015E0000E949A096C01009709F043C03DC0C501F3
:1015F0000E94F90897FD4BC01F3659F1103728F4A7
:10160000143629F1193639F527C0133719F0153773
:1016100011F51DC0C5010E94890BEC0197FD11C099
:101620000E94600B892B29F0CE01B5010E94F70BB7
:1016300008C0E114F10419F0F701C1937F019A94F5
:1016400049F7E114F104A9F0F701108212C0006219
:1016500003C0006101C00064C501692DA701202FEE
:101660000E941209882329F4F5018381807379F49B
:1016700013C000FF8394F501F380F601F3FC15918C
:10168000F3FE11916F01112309F00BCF05C08820E3
:1016900019F42FEF3FEF02C0282D30E0C901CDB77C
:1016A000DEB7EEE00C94B40CA8E1B0E042E050E00C
:1016B0000C94710C0196272F0E94800C0C947F0CC7
:1016C00091112FC1803219F089508550D0F70895BB
:1016D000FC010590061621F00020D9F7C0010895FD
:1016E0003197CF010895FC010590615070400110C1
:1016F000D8F7809590958E0F9F1F0895FC0161503B
:10170000704001900110D8F7809590958E0F9F1F23
:101710000895CF93DF93EC014B8140FF1AC046FF41
:101720000AC04F7B4B838E819F8101969F838E835E
:101730008A81282F2BC042FF13C0E881F981808164
:10174000282F332727FD30952115310529F44062D4
:101750004B832FEF3FEF1BC03196F983E88311C015
:10176000EA85FB85CE0109959C0197FF0AC09B8104
:101770002F5F3F4F11F080E201C080E1892B8B8306
:10178000E8CF8E819F8101969F838E8330E0C901CF
:10179000DF91CF9108950F931F93CF93DF938C0127
:1017A000EB018B8181FF1BC082FF0DC02E813F8129
:1017B0008C819D812817390764F4E881F9810193B0
:1017C000F983E88306C0E885F985802F0995892B80
:1017D00031F48E819F8101969F838E8302C00FEF2B
:1017E0001FEFC801DF91CF911F910F9108959C01C8
:1017F000FB01838180FF11C086FD0FC09FEF2F3F4B
:10180000390759F0228380648F7D83838681978195
:1018100001979783868330E002C02FEF3FEFC90125
:101820000895FA01AA27283051F1203181F1E89476
:101830006F936E7F6E5F7F4F8F4F9F4FAF4FB1E0C3
:101840003ED0B4E03CD0670F781F891F9A1FA11DBE
:10185000680F791F8A1F911DA11D6A0F711D811DBF
:10186000911DA11D20D009F468943F912AE0269F84
:1018700011243019305D3193DEF6CF010895462FE3
:101880004770405D4193B3E00FD0C9F7F6CF462FC4
:101890004F70405D4A3318F0495D31FD405241932D
:1018A00002D0A9F7EACFB4E0A695979587957795EA
:1018B0006795BA95C9F700976105710508959B0171
:1018C000AC010A2E06945795479537952795BA95FA
:1018D000C9F7620F731F841F951FA01D0895DC01B7
:1018E000CB01FC01F999FECF06C0F2BDE1BDF89A2B
:1018F000319600B40D9241505040B8F70895262F0C
:10190000F999FECF92BD81BDF89A019700B40216F5
:1019100039F01FBA20BD0FB6F894FA9AF99A0FBEA3
:1019200008959927882708952F923F924F925F92AA
:101930006F927F928F929F92AF92BF92CF92DF92DF
:10194000EF92FF920F931F93CF93DF93CDB7DEB744
:10195000CA1BDB0B0FB6F894DEBF0FBECDBF0994D8
:101960002A88398848885F846E847D848C849B842F
:10197000AA84B984C884DF80EE80FD800C811B813D
:10198000AA81B981CE0FD11D0FB6F894DEBF0FBE6C
:0A199000CDBFED010895F894FFCFDC
:10199A0045453130392050726F6A6563740042657B
:1019AA006E2043726F74747900202020202020203A
:1019BA000052656D6F7465002020202020202020B1
:1019CA00004D696E3D253364004C6F63616C0025E0
:1019DA003033642E2564004F7665722072616E671B
:1019EA0065002533640025640025642E2564000003
:00000001FF
